:020000040800F2
:10000000D0130020C10100088B1D0008271D000827
:10001000891D0008830200088136000800000000E6
:10002000000000000000000000000000792100082E
:10003000C902000800000000551E00087B210008CE
:10004000DB010008DB010008DB010008DB01000820
:10005000DB010008DB010008DB010008DB01000810
:10006000DB010008DB010008DB010008DB01000800
:10007000DB010008DB010008DB010008DB010008F0
:10008000DB010008DB010008DB010008DB010008E0
:10009000DB010008DB010008DB010008DB010008D0
:1000A000DB010008DB010008DB010008DB010008C0
:1000B000DB010008DB010008DB010008DB010008B0
:1000C000DB010008DB010008DB010008DB010008A0
:1000D000DB010008DB010008DB010008DB01000890
:1000E000DB010008DB010008DB010008DB01000880
:1000F000DB010008DB010008DB010008DB01000870
:10010000DB010008DB010008DB010008DB0100085F
:10011000DB010008DB010008DB010008DB0100084F
:10012000DB010008DB010008DB010008DB0100083F
:10013000DB010008DB010008DB010008DB0100082F
:10014000DB010008DB010008DB010008AD1D000831
:10015000DB010008DB010008DB010008DB0100080F
:10016000DB010008DB010008DB010008DB010008FF
:10017000DB010008DB010008DB01000800000000D3
:10018000DB010008DB010008DB010008DB010008DF
:10019000DB010008DB010008DB010008DB010008CF
:1001A000DB010008DB010008DB010008DFF80CD0F0
:1001B00000F02AF800480047A1360008D0130020BC
:1001C0000648804706480047FEE7FEE7FEE7FEE7F1
:1001D000FEE7FEE7FEE7FEE7FEE7FEE73122000866
:1001E000AD01000840EA01039B0703D009E008C9FC
:1001F000121F08C0042AFAD203E011F8013B00F8EC
:10020000013B521EF9D27047064C074D06E0E068EC
:1002100040F0010394E8070098471034AC42F6D34D
:10022000FFF7C8FF303700085037000870B58C184A
:1002300010F8015B15F0070301D110F8013B2A11FA
:1002400006D110F8012B03E010F8016B01F8016BE7
:100250005B1EF9D12B0705D40023521E0DD401F8E3
:10026000013BFAE710F8013BCB1A921C03E013F8AC
:10027000015B01F8015B521EF9D5A142D8D30020E1
:1002800070BDFEE7002070470020704710B50022C7
:100290000549064802F0BEF803490448091F02F068
:1002A000B3F8002010BD000034010020BC01002084
:1002B00010B50146034802F0A7F8024802F088F89A
:1002C000002010BDBC0100207047FEE770B5044659
:1002D00000F0EAF80546601C00D0641C00F0E4F869
:1002E000401BA042FAD370BD2DE9F84FDFF888B16A
:1002F00000234FF0010C4FF0030A4FF00F090BF1F0
:10030000040EB1E00CFA03F632406FD04C68022CB8
:1003100001D0122C11D1DC0800EB84073C6A5D0788
:10032000ED0E09FA05F824EA0804D1F8108008FA5D
:1003300005F848EA0408C7F8208007685D0091F8CE
:1003400004800AFA05F408F00308A74308FA05F840
:1003500048EA0708C0F800804F68012F05D0022F37
:1003600003D0112F01D0122F10D1D0F80880CF6800
:1003700028EA0408AF4047EA080787604768B743A0
:100380000E79C6F300169E403E434660C668A643FB
:100390008C68AC403443C4604C68E40063D5374C8F
:1003A000256E45F001052566246E23F0030504F053
:1003B00001040094324C2F19BD689C07260F09FADE
:1003C00006F4A543B0F1904F04D02E4CA04203D1C7
:1003D000012421E000241FE02B4CA04201D1022483
:1003E0001AE02A4CA04202D1032415E03BE0284C3D
:1003F000A04201D104240FE0264CA04201D10524E3
:100400000AE0254CA04201D1062405E0234CA0427D
:1004100001D1072400E00824B4402C43BC60DBF881
:1004200000405D464E689443F60300D514432C60AB
:10043000DEF8004075464E689443B60300D5144379
:100440002C600D4D08352C684E689443F60200D59B
:1004500014432C60084D0C352C684E689443B6024A
:1004600000D514432C605B1C0A6832FA03F47FF455
:1004700049AF00F015B80000000401400010024030
:10048000000001400004004800080048000C00483B
:10049000001000480014004800180048001C0048E4
:1004A00018BCBDE8E08F00000148006870470000FC
:1004B0000000002002480168491C016070470000EC
:1004C0000000002010B5032000F088F8002000F0A4
:1004D00005F800F017F8002010BD000010B5044624
:1004E00007484FF47A710068B0FBF1F001F003FCAB
:1004F00000222146501E00F051F8002010BD0000DF
:100500001C0100201E4808B5016E41F00101016682
:10051000016E01F001010091816D41F08051816512
:10052000806D00F080500090032000F057F800220A
:1005300011466FF00B0000F031F8002211466FF009
:100540000A0000F02BF8002211466FF0090000F0BD
:1005500025F800221146501F00F020F80022114615
:10056000101F00F01BF800221146901E00F016F834
:100570000022BDE808401146501E00F00FB80000F0
:100580000010024000F01F0201219140400980004C
:1005900000F1E020C0F8001170470000F0B40E4BED
:1005A0001B680C46C3F30223C3F10705042D00D9D1
:1005B0000425191D072901D2002300E0DB1E0126B6
:1005C00006FA05F1491E214099409E40761E1640CC
:1005D0003143F0BC01F0DABB0CED00E0064900F05D
:1005E000070208684FF6FF03184040EA0220034A5A
:1005F00010430860704700000CED00E00000FA05B1
:1006000001680122C0F8C423886B40F4003088637D
:100610000020704701220168C0F8C023002280F842
:10062000B823886940F000608861486D024A104331
:1006300048650020704700000300001070B5164D9B
:100640000446A1B1012911D12068D0F8001E41F063
:100650000101C0F8001ED4F8C80302F065FA206A50
:10066000002803D0286840F00600286070BD206A8A
:1006700028B101F089FD286820F006002860206874
:10068000D0F8001E21F00101C0F8001ED4F8C80304
:10069000BDE8704002F0D6B910ED00E0006841629C
:1006A00000207047F0B500680023446A31B1856AC4
:1006B0004FF4827604EB15444D1E0AE044EA0241F1
:1006C00081620FE006EB8307C7595B1C04EB1744FC
:1006D000DBB2AB42F6DB4FF4807303EB810144EAFB
:1006E000024242500020F0BDD0F8C80302F014B915
:1006F000C1EBC10200EB8202D0F8C803926C02F099
:1007000081B8C1EBC10200EB8202D0F8C803D2F875
:10071000EC2102F0CCB8D0F8C80302F0FFB810B555
:1007200004460A460B0601F07F00C0EBC00104EB53
:10073000810101D53C3101E001F5F0710870D0096B
:10074000487094F88403012809D0012084F88403B8
:10075000206802F0FDFB002084F8840310BD022015
:1007600010BD70B50A460446090602F07F0005D5A3
:10077000C0EBC00104EB81013C3105E0C2EBC201DA
:1007800004EB810101F5F07100258D700870D0092E
:10079000487094F88403012809D0012084F8840368
:1007A000206802F072FD84F88453002070BD02209E
:1007B00070BD01F07F01C1EBC10100EB8100B0F819
:1007C000F80180B2704770B504460D460E0601F080
:1007D0007F00C0EBC00104EB810101D53C3101E099
:1007E00001F5F0710870E80948708A60CB7094F8E0
:1007F0008403012809D0012084F88403206802F0D2
:1008000019FB002084F8840370BD022070BD000035
:1008100070B504460E4601F07F00C0EBC00104EB4A
:1008200081010025C1F8EC21C1E97D3581F8E15154
:1008300081F8E00194F8840301F5F07101280DD0EE
:10084000012084F884037006227C206808D002F01E
:100850007DFD00BF84F88453002070BD022070BD70
:1008600002F06EFCF6E770B50D460446090605F089
:100870007F0005D5C0EBC00104EB81013C3105E0F0
:10088000C5EBC50104EB810101F5F07101228A700D
:100890000870E809487094F88403012807D084F8A8
:1008A0008423206802F023FD680602D007E00220BE
:1008B00070BD217C04F56272206802F0CFFC00203C
:1008C00084F8840370BD70B504460E4601F07F00C5
:1008D000C0EBC00104EB810100258A64C1E9143535
:1008E000012281F83D2001F83C0F94F8840301288F
:1008F0000BD084F884237006227C206807D002F095
:1009000025FD84F88453002070BD022070BD02F0E4
:1009100017FCF6E72DE9F84F044600680026054667
:1009200002F038FE00287DD1206802F05CFE00282D
:1009300078D0206802F057FE800704D5206841690E
:1009400001F002014161206802F04DFE010304F54F
:1009500062704FF001094FF0000B00907DD52068C8
:1009600002F023FE074680E0F8077CD0F1B2206851
:1009700002F031FE8046C0075FD005EB4610C0F89C
:10098000089B296CFE4A914230D1D5F8081B090416
:1009900024D42169012911D1C6EBC60104EB8101E0
:1009A000D0F8100BD1F8E821C0F31200101AC1F8EA
:1009B000F801D1F8EC011044C1F8EC01F1B2204685
:1009C000FFF79FFE2069012808D13EB9D4F8F40151
:1009D00020B920680121009A02F040FCD5F8080BEC
:1009E00048F220010843C5F8080B26E021690129D7
:1009F00011D1C6EBC60104EB8102D0F8100BD2F87E
:100A0000E811C0F31200081AC2F8F801D2F8EC019C
:100A10000844C2F8EC01F1B22046FFF772FE2069EB
:100A2000012800E048E208D13EB9D4F8F40120B929
:100A300020680121009A02F011FC5FEA087007D5D6
:100A4000204600F037FB05EB46110820C1F8080BE3
:100A50005FEAC86007D5102001E009E003E005EB7C
:100A60004611C1F8080B7F08761C002F7FF47CAF7D
:100A7000206802F0B8FD40034FF0400A5DD52068C1
:100A800002F08CFD0746002655E0F80751D0F1B280
:100A9000206802F091FD8046C00724D0D5F83418B4
:100AA00009FA06F08143C5F8341805EB4610C0F882
:100AB00008992069012807D1C6EBC60004EB800025
:100AC000D0E9112111448164F1B22046FFF710FEF4
:100AD0002069012807D136B9206D20B9206801218D
:100AE000009A02F0BBFB5FEA087004D505EB4611E3
:100AF0000820C1F808095FEAC86004D505EB461173
:100B00001020C1F808095FEA486003D505EB4611DB
:100B1000C1F808A95FEA887004D505EB46110220E8
:100B2000C1F808095FEA086003D53146204601F0A4
:100B300043F97F08761C002FA7D1206802F053FDEF
:100B4000002811DAD5F8040820F00100C5F80408DF
:100B500094F8B80301283AD0204600F079FA2068CA
:100B6000416901F000414161206802F03CFD00054F
:100B70000BD5D5F80808C00702D0204600F0B6FA19
:100B80002068416901F400614161206802F02BFD99
:100B900000010AD52068416901F00061416194F8C3
:100BA000B803D8B1204600F0A1FA206802F01BFD7E
:100BB000C00460D5D5F8040820F00100C5F8040889
:100BC0000021206802F0D4FC0020FF211BE084F803
:100BD000B8B300212046FFF731FDC0E784F8B89391
:100BE0002068406D0121C0F38300C4F8BC03204697
:100BF000FFF724FDD9E700BF05EB4012C2F8081942
:100C0000C2F8081B401C62688242F5D84FF0FF30E2
:100C1000C5F81808D5F81C0840F00110C5F81C08E4
:100C2000206B60B1D5F8840840F00B00C5F884084B
:100C3000D5F8440840F00B00C5F844080BE0D5F89F
:100C4000140840F00B00C5F81408D5F8100840F05F
:100C50000B00C5F81008D5F8000820F4FE60C5F8B0
:100C60000008217C2068009A02F0F8FA20684169A7
:100C700001F480514161206802F0B5FC800472D516
:100C8000206802F017F92068C16821F47051C16032
:100C90000320C4F814A0E06000F030FD39493A4A5E
:100CA0000144914204D22068C16841F4705151E07E
:100CB0003649374A0144914204D22068C16841F460
:100CC000605147E03349344A0144914204D22068DC
:100CD000C16841F450513DE03049314A01449142EC
:100CE00004D22068C16841F4405133E02D492E4AB6
:100CF0000144914204D22068C16841F4305129E096
:100D00002A492B4A0144914204D22068C16841F427
:100D100020511FE02749284A0144914204D220680B
:100D2000C16841F4105115E02449254A014491421B
:100D300004D22068C16841F400510BE0214901440C
:100D4000214881422068C16802D241F4E05101E0AB
:100D500041F4C051C160204600F06CF9206841693F
:100D600001F400514161206802F03DFCC0065DD5F0
:100D70002068816921F010018161D5F8208025E08B
:100D80000A31544F405327FF00350C00401E1BFF13
:100D900040420F0000DC0BFF804F1200808CF9FEF8
:100DA00020D6130060B6E5FE60E3160000D3CEFE49
:100DB00040771B00C05BB3FEC091210000CA91FECA
:100DC00020753800E05459FEE09C410008F00F0007
:100DD000C0EBC00004EB8007C8F3434007F5F07791
:100DE000022802D0062812D01BE047F6F07118EA5C
:100DF000010F16D0C8F30A1290462846F96802F08F
:100E0000F6FBF8684044F860B869404408E00822FE
:100E10002846009902F0EBFBB969C8F30A100844B0
:100E2000B8612068816941F010018161206802F099
:100E3000DAFB000707D5204600F024F92068416955
:100E400001F008014161206802F0CDFBC00208D525
:100E5000F1B2204600F035F82068416901F48011B4
:100E60004161206802F0BFFB800208D5F1B2204644
:100E700000F02BF82068416901F4001141612068FD
:100E800002F0B1FB400007D52046FFF72DFC20689B
:100E9000416901F080414161206802F0A4FB4007F4
:100EA0000AD520684568680702D52046FFF733FC5D
:100EB000206841682943416000F000B818BCBDE8D3
:100EC000E08FD0F8C80301F077BDD0F8C80301F077
:100ED00075BD2DE9F0418AB004004FF0000504D043
:100EE00094F88503002620B108E001200AB0BDE88F
:100EF000F08184F88463204600F05CF8032084F8D5
:100F00008503206802F016F904F1100128228846B2
:100F10006846FFF767F994E80F0001F0E5FF00214C
:100F2000206802F074FB01270DE0C5EBC50004EB5F
:100F3000800080F83D7000F83C5FC580C670866018
:100F4000C6606D1C46616068A842EED80020C0EB08
:100F5000C00104EB810181F8E16181F8E001A1F8B1
:100F6000420081F8E361C1F8E861C1F8EC61401C1E
:100F7000C1F8F4610F28EAD3282241466846FFF7FA
:100F800031F994E80F0002F033F884F8386084F8FF
:100F90008573606A012802D12046FFF73BFBA06AF7
:100FA000012802D12046FFF72BFB206802F013F83E
:100FB00000209BE710B5006886B0B0F1A04F34D197
:100FC0004FF4C050009002200190002002900320B6
:100FD00003900A20049069464FF09040FFF784F98F
:100FE000134CE06C40F48050E064E06C00F48050FE
:100FF0000590A06DC0000ED4A06D40F08050A0659B
:10100000A06D00F08050059000F0BAF8A06D20F0BF
:101010008050A06501E000F0B3F8002211464320A3
:10102000FFF7BCFA4320FFF7ADFA06B010BD000091
:101030000010024010B504460121D0F8C80301F0A9
:1010400013FDD4F8C803BDE8104001F0DCBC00007B
:1010500010B504460068D0F8001E21F00101C0F868
:10106000001E206A30B10648016821F006010160C7
:1010700001F08AF8D4F8C803BDE8104001F0E2BCE2
:1010800010ED00E0D0F8C80301F0E2BC10B5044652
:1010900090F8840301280BD0012084F8840384F89D
:1010A0003810206802F0C9FA002084F8840310BDCB
:1010B000022010BDD0F8C82300F56271104601F07F
:1010C000E6BC10B5044690F8840301280CD001203A
:1010D00084F88403206801F072FF206802F032FA7D
:1010E000002084F8840310BD022010BD10B5044612
:1010F0000068D0F8001E41F00101C0F8001ED4F8CD
:10110000C80301F011FD206A002804D002480168DC
:1011100041F00601016010BD10ED00E01549B0F589
:10112000007F0868C0F3412009D0022805D0086874
:1011300020F4C06040F480600860002070470128FF
:10114000FBD0086820F4C06040F4007008600A48D2
:101150000A4A0068B0FBF2F03222504300E0401E21
:1011600010B14A695205FAD448694005E5D5032013
:1011700070470000007000401C01002040420F003A
:101180000248416841F4806141607047007000404E
:101190000248006800F4C060704700000070004022
:1011A0000248016841F004010160704700100240EC
:1011B0002DE9F84F044600270088EC4D3E46010516
:1011C00004F1200B1DD5A06E78B1B0F5800F11D0C1
:1011D000B0F5000F04D0B0F5400F22D001270FE08A
:1011E000E86840F48030E8601BE00021201D00F03A
:1011F00033FE03E00021584600F0E2FE070010D065
:101200003E462088C00426D5E06EC0B1B0F1807F94
:101210001AD0B0F1007F0DD0B0F1407F19D0012776
:1012200018E0D5F88800A16E20F440000843C5F806
:101230008800E6E7E86840F48030E86009E00021D3
:10124000201D00F009FE03E00021584600F0B8FE22
:101250000746F7B13E46206880033AD5A86D4FF0A7
:101260000008C00009D4A86D40F08050A865A86DA2
:101270004FF0010800F080500090DFF8F4A2DAF897
:10128000001041F48071CAF80010FFF70DF9814693
:1012900010E0D5F88800E16E20F040700843C5F8F2
:1012A0008800D8E7FFF700F9A0EB0900022801D970
:1012B000032705E0DAF80000C005F3D5002F7CD045
:1012C0004FEA0706B8F1000F03D0A86D20F0805058
:1012D000A8652078C00707D0D5F88800A16B20F05A
:1012E00003000843C5F888002078800707D5D5F8A3
:1012F0008800E16B20F00C000843C5F888002078D6
:10130000400707D5D5F88800216C20F0300008434D
:10131000C5F888002078000707D5D5F88800616CEB
:1013200020F0C0000843C5F888002078C00607D523
:10133000D5F88800A16C20F440700843C5F88800F7
:101340002078800607D5D5F88800E16C20F440604D
:101350000843C5F888002088800507D5D5F888009F
:10136000216E20F440200843C5F8880020884005FD
:1013700007D5D5F88800616E20F440100843C5F801
:1013800088002078400607D5D5F88800216D20F424
:1013900040500843C5F888002078000607D5D5F8E6
:1013A0008800616D20F440400843C5F8880020881B
:1013B000C00509D5D5F8880000E027E0A16D20F42C
:1013C00040300843C5F888002068C00207D5D5F82A
:1013D0009C00E16D20F003000843C5F89C002088C4
:1013E0004FF0006780044FF0806850D5D5F8880032
:1013F000216F20F040600843C5F88800206FB84294
:101400003DD1E86840F48010E86040E0D5F89000F5
:1014100010F4407015D0D4F88810814211D0D5F85E
:101420009000D5F8901020F4407041F48031C5F858
:101430009010D5F8901021F48031C5F89010C5F8BF
:101440009000C00711D0FFF72FF8074641F2883906
:1014500007E000BFFFF728F8C11B494501D9032663
:1014600030E7D5F890008007F4D5D5F89000D4F88F
:10147000881020F440700843C5F8900022E74045EA
:1014800005D10121201D00F0E7FC00B106462068CF
:10149000000317D5D5F88800616F20F0406008433D
:1014A000C5F88800606FB84204D1E86840F4801045
:1014B000E86007E0404505D10121201D00F0CCFC8B
:1014C00000B106462068400317D5D5F88800A16F03
:1014D00020F040600843C5F88800A06FB84204D1EE
:1014E000E86840F48010E86007E0404505D101213C
:1014F000201D00F0B1FC00B10646208840041AD53A
:10150000D5F88800E16F20F040500843C5F8880006
:10151000E06FB0F1805F03D0B0F1005F05D00AE06A
:101520000221201D00F098FC03E00221584600F043
:1015300047FD00B106462088000408D5D5F888008C
:10154000D4F8801020F080400843C5F88800206857
:10155000C00307D555F8880FD4F8841020F0004058
:1015600008432860304600F005B800000010024033
:101570000070004018BCBDE8E08F00002DE9F04786
:10158000DFF8688105460E46D8F8000000F0070035
:10159000B0420CD2D8F8001021F007013143C8F84E
:1015A0000010D8F8000000F00700B04274D128788D
:1015B0004F4C800705D5A068A96820F0F0000843CB
:1015C000A0602878C00756D06868022818D0032881
:1015D00019D02168D0B1490500295DDAA16821F050
:1015E00003010143A160FEF75FFF6968074641F20E
:1015F0008830022912D003291ED0814649B335E034
:1016000021688903E8E721688901E5E78907E3E7BD
:10161000FEF74AFFC11B494501D924E08146A06875
:10162000C0F381000228F3D125E000BFFEF73CFFA4
:10163000C11B494501D916E08146A068C0F381006D
:101640000328F3D117E000BFFEF72EFFC11B494569
:1016500009D8A06810F00C0FF6D10CE0FEF724FFBB
:10166000C11B494502D90320BDE8F087A068C0F33B
:1016700081000128F2D1D8F80010404601F007019E
:10168000B1420BD9016821F00701314301600068C4
:1016900000F00700B04201D00120E5E728784007BC
:1016A00005D5A068E96820F4E0600843A0602878C8
:1016B000000706D5A068296920F4605040EAC100FF
:1016C000A06000F021F8A168F02292FAA2F201F0E5
:1016D000F001B2FA82F2D140064A515CC840064994
:1016E00008600020FEF7FAFE0020BDE7002002405F
:1016F00000100240F03600081C010020014800687C
:10170000704700001C01002070B53B4900231846BB
:101710008A683A4C12F00C0F4FEA640514D08A68BC
:10172000C2F38102032A04D1CA6802F00302012A2B
:101730000AD08A68C2F38102012A21D08A68C2F3E2
:101740008102022A1ED01EE00A68120706D4D1F8D0
:1017500094204FF4706302F4706203E00A68F0238F
:1017600002F0F00293FAA3F3B3FA83F3DA40244BC6
:1017700053F822308A6812F00C0F04D1184602E0A8
:10178000204600E028468A68C2F38102032A31D14C
:10179000C868CA6800F00300702696FAA6F602F040
:1017A0007002B6FA86F6F240521C4FF4FE4602284A
:1017B00004D0032805D0B3FBF2F004E0B4FBF2F050
:1017C00001E0B5FBF2F0CA6896FAA6F302F4FE4215
:1017D000B3FA83F3DA40C96850434FF0C06292FA1B
:1017E000A2F201F0C061B2FA82F2D140491C490074
:1017F000B0FBF1F070BD0000001002400024F400C6
:10180000003700082DE9F84304460078FE4DC00675
:1018100063D5A86810F00C0F0AD0A06900282868CA
:1018200078D040F001002860FEF73EFE06465AE000
:101830002868800702D5A06900286AD0216A286834
:101840004FF0F006000703D5286800F0F00003E031
:10185000D5F8940006EA1010814216D9084600F027
:101860004DFC002855D1286840F008002860286801
:10187000216A20F0F000084328606868E16920F4DC
:101880007F4040EA0120686015E0286840F00800C9
:1018900028602868216A20F0F00008432860686802
:1018A000E16920F47F4040EA01206860206A00F08E
:1018B00025FC0028D6D1FFF727FFA96896FAA6F2E3
:1018C00001F0F001B2FA82F2D140D04A515CC84036
:1018D000CF4908600020FEF701FE2BE0FEF7E4FD93
:1018E000801B02287ED828688007F7D5286840F03A
:1018F000080028602868216A20F0F000084328606A
:101900006868E16920F47F4040EA0120686011E0E6
:1019100000E0B7E020F001002860FEF7C5FD0646B4
:1019200005E000BFFEF7C0FD801B0228DAD828685A
:101930008007F7D42078C00748D0A868C0F381009A
:1019400002281DD0A868C0F38100032803D1E868ED
:10195000C043800714D06068B0F5803F17D0B0F561
:10196000A02F286817D020F480302860286820F441
:10197000802028606068E0B1FEF796FD064614E01E
:101980002868800322D5606800287BD01EE0286884
:1019900040F48030EDE740F480202860F7E700BF96
:1019A000FEF782FD801B64289CD828688003F7D549
:1019B0000CE0FEF779FD064605E000BFFEF774FD7A
:1019C000801B64288ED828688003F7D4207880078D
:1019D00048D5A8684FF0FE47C0F38100012816D013
:1019E000A86800E0D4E0C0F38100032804D1E868CF
:1019F00000F0030002280AD0E0680028286821D0FF
:101A000040F480702860FEF74FFD06460BE0286822
:101A100040050BD5E0680028B7D007E0FEF744FD8D
:101A2000801B0228C0D828684005F7D5686897FA57
:101A3000A7F22169B2FA82F220F0FE4091400843F9
:101A400068600FE020F480702860FEF72DFD0646E8
:101A500005E000BFFEF728FD801B0228A4D82868F7
:101A60004005F7D42078000729D560690028D5F80B
:101A7000940013D040F00100C5F89400FEF714FD67
:101A8000064606E023E100BFFEF70EFD801B02289C
:101A90007ED8D5F894008007F6D510E020F001003C
:101AA000C5F89400FEF700FD064604E0FEF7FCFCD6
:101AB000801B02286CD8D5F894008007F6D42078D3
:101AC000400761D5A86D0026C00008D4A86D40F07D
:101AD0008050A865A86D012600F0805000904D4808
:101AE0000168C90511D40168804641F48071016024
:101AF000FEF7DAFC074604E0FEF7D6FCC01B02281E
:101B000046D8D8F80000C005F6D5A068012815D041
:101B10000528D5F8900016D020F00100C5F89000F7
:101B2000D5F8900020F00400C5F89000A06841F2BC
:101B30008838B8B1FEF7B8FC07460EE0D5F890003B
:101B400040F00100F0E740F00400C5F89000F5E730
:101B5000FEF7AAFCC11B41451AD8D5F890008007B2
:101B6000F6D50CE0FEF7A0FC074604E0FEF79CFC6F
:101B7000C11B41450CD8D5F890008007F6D41EB1A2
:101B8000A86D20F08050A8652078800629D500E057
:101B900084E0606A0028D5F8980011D040F0010078
:101BA000C5F89800FEF780FC064604E0FEF77CFCD2
:101BB000801B022872D8D5F898008007F6D510E06F
:101BC00020F00100C5F89800FEF76EFC064604E020
:101BD000FEF76AFC801B022871D8D5F898008007B0
:101BE000F6D4A06AF0B3A968C1F3810103296FD0CC
:101BF0000228286820F0807028601AD02868000128
:101C00000FD42868800007E000100240F03600087A
:101C10001C0100200070004003D4E86820F003009D
:101C2000E860E8682B490840E860FEF73DFC0446A0
:101C300048E0FEF739FC064605E000BFFEF734FC3D
:101C4000801B02283BD828688001F7D4206B54F809
:101C50002C1F000110380843218A1F4A490802EB53
:101C6000415100E031E0A26841EA02210843217DB0
:101C70004FF07E42490802EB41610843217B40EA74
:101C8000C160E860286840F080702860E86840F033
:101C90008070E860FEF708FC044606E00FE000BF35
:101CA000FEF702FC001B022809D828688001F7D53E
:101CB0000BE000BFFEF7F8FB001B022802D903204F
:101CC000BDE8F88328688001F4D40020F8E7FFE736
:101CD0000120F5E7FFFFEEFE0000E0FF4FF0E021FE
:101CE0000428086903D020F004000861704740F020
:101CF0000400FAE7704710B5401EB0F1807F01D3B1
:101D0000012010BD4FF0E02460610F21601700F04A
:101D10003DF80020A06107202061002010BD10B513
:101D2000FFF7E8FF10BDFEE7054808B5C16C41F0BC
:101D30000101C164C06C00F00100009008BD00000A
:101D40000010024010B500220B490C4800F01CFDA9
:101D50000B490A4800F015FF0A49084800F04CFBFF
:101D6000064800F026FD002804D0BDE810400348D6
:101D700000F054BF10BD000038010020BC0100205D
:101D8000E000002020010020FEE770470907090E4F
:101D9000002806DA00F00F0000F1E02080F8141DA2
:101DA000704700F1E02080F8001470470148FEF70A
:101DB000B1BD0000000600202DE9F84F0F46C1EB31
:101DC000C70100EB810582460668D5E91401441A73
:101DD000686C3C35A04200D20446E01CC11700EB01
:101DE00091704FEAA00806EB471919E0441AA86859
:101DF000A04200D20446E01CC11700EB91704FEAEC
:101E0000A0089AF810000090A3B2FAB23046E96830
:101E100001F024FCE8682044E860A8692044A86137
:101E2000D9F8180981B2414505D9D5E905018142A2
:101E300001D20028DAD1002C06DC0120D6F83418B3
:101E4000B8408143C6F83418002000F000B818BC30
:101E5000BDE8E08F704700002DE9F041544C054685
:101E60000F46E0680026820728684FF0700112D004
:101E7000E26802F0030282421BD1D0B1E06891FA1D
:101E8000A1F100F07000B1FA81F1C8406968401C0E
:101E900088420ED122E0012804D0022805D0032870
:101EA00007D108E02268920701E022685205002A63
:101EB00007DB012678E02268920302D422685203ED
:101EC000F5E7E26891FAA1F122F073036A68B1FACA
:101ED00081F1521E8A4013430343E360206820F0DF
:101EE00080602060FEF7E0FA804605E0FEF7DCFA4D
:101EF000A0EB080002284ED820680001F6D44FF469
:101F0000FE4017B390FAA0F0A968012FB0FA80F054
:101F10004FF0FF3201FA00F129D0686902EB50005E
:101F20004FF0C06292FAA2F2B2FA82F290400143FC
:101F30002069204A104001432161206840F0806000
:101F40002060FEF7B1FA074627E090FAA0F0A968F2
:101F5000B0FA80F081404FF0784292FAA2F2E8683D
:101F6000B2FA82F2904001432069134AE2E72869FD
:101F700002EB50004FF4C00292FAA2F2B2FA82F2DF
:101F80009040014320690D4AD4E700BFFEF78CFA68
:101F9000C01B022801D9032606E020680001F5D500
:101FA0002069A969084320613046BDE8F08100003E
:101FB00000100240FF80FFF9FF80FF07FF809FFFB6
:101FC0002DE9F0414A4C06468846E0680025810725
:101FD00030684FF0700312D0E16801F003018142D4
:101FE0001BD1D0B1E06893FAA3F100F07000B1FA10
:101FF00081F1C8407168401C88420ED122E001285E
:1020000004D0022805D0032807D108E021688907F9
:1020100001E021684905002907DB012564E021680A
:10202000890302D421684903F5E7E16893FAA3F331
:1020300021F073027168B3FA83F3491E99400A4391
:102040000243E260206820F080502060FEF72CFA06
:10205000074604E0FEF728FAC01B02283BD8206898
:102060008000F7D44FF4FE4191FAA1F1B068B8F1C5
:10207000000FB1FA81F100FA01F019D031694FF087
:10208000FF3202EB51014FF0C06292FAA2F2B2FAB3
:1020900082F2914008436169164A11400843606129
:1020A000206840F080502060FEF7FEF9074614E0FB
:1020B000F1684FF4003292FAA2F20909B2FA82F200
:1020C0009140084361690C4AE7E700BFFEF7ECF96D
:1020D000C01B022801D9032506E020688000F5D541
:1020E00060697169084360612846BDE8F0810000BD
:1020F00000100240FF80FFF9FF80FDFFF8B51C4D86
:1021000006460024A86DC00002D5FFF741F80DE097
:10211000A86D40F08050A865A86D00F08050009038
:10212000FFF736F8A96D21F08051A965B0F5007F61
:1021300004D0802E07D94FF003040AE0802E08D97E
:10214000A02E01D804E001D1022402E0702E00D1BB
:1021500001240848016821F007012143016000685B
:1021600000F00700A04201D00120F8BD0020F8BD1A
:102170000010024000200240704710B5FEF79AF9A7
:10218000BDE81040FFF7CBBD70B5BAB01420239066
:10219000602000242B9001262594CDE92964022596
:1021A000CDE92D562820CDE930052F96329523A86C
:1021B0003395FFF727FB00B1FEE70F203490032093
:1021C000CDE935043794042134A83894FFF7D6F9C3
:1021D00000B1FEE74FF40050009040031C900196C0
:1021E00002961820CDE903054FF48010CDE9065082
:1021F00005956846FEF7DCFF00B1FEE74FF400707E
:10220000FEF78CFF00B1FEE7FFF778FA4FF47A7122
:10221000B0FBF1F0FFF76FFD0420FFF75FFDFEF765
:10222000BFFF00221146501EFEF7B8F93AB070BD4C
:102230000D48016841F4700101600C48016841F0EB
:1022400001010160002181600268094B1A400260AF
:102250008214C260026822F4802202608161024915
:10226000C00380390860704788ED00E0001002402C
:10227000FFFFF6EAD0F8180220B10021C0F81412CE
:10228000084670470220704770B50546D0F81842DE
:1022900000F04FFBC4F80C02D5F8180248B1D5F88D
:1022A0001C12D4F80402CA6804F503719047002098
:1022B00070BD022070BD70B504460025812100F07C
:1022C00091FA0121204600F08DFA8221204600F08B
:1022D00089FAD4F8180250B1D4F81C0204F5067437
:1022E00040688047206800F09FFD0020206028465D
:1022F00070BD10B5D0E9864159B194F80002FF28AD
:1023000007D08B6894F8012221469847FF2084F873
:102310000002002010BD00000A2101800048704723
:102320000800002043210180004870475800002029
:1023300043210180004870471400002043210180A0
:10234000004870479C0000202DE9F0410446007CC5
:1023500000254FF4007670B34023022281212046ED
:1023600000F02EFB402302220121204600F028FB32
:10237000082303228221204600F022FB4FF407703D
:1023800000F054FDC4F81802F0B10746D4F81C025E
:10239000006880470020C7F81402C7F81802207CA4
:1023A000D7F8042290B140230121204600F01BFB06
:1023B0002846BDE8F081FFE733460222812120460E
:1023C00000F0FEFA3346CEE70125F1E73346EBE7AE
:1023D00010B5D0F8181269B1027C002AD1F8042295
:1023E00005D04023012100F0FEFA002010BD4FF47B
:1023F0000073F7E7022010BD02460220002902D038
:102400000020C2F81C127047D0F81802C0F804125D
:1024100000207047D0F81802C0F81022C0F8081247
:102420000020704770B50646D0F8185208780C4660
:1024300010F0600121D0202927D1E288AAB100063E
:10244000607807D5D6F81C128B6829469847E28831
:10245000294617E085F80002A07985F80102E28894
:102460002946304600F050F80FE0D6F81C1260788C
:1024700000228B682146984707E060780A2804D13B
:1024800003490122304600F059F8002070BD0000D9
:102490000400002010B5D0F8181289B1D1F8142228
:1024A0000AB1012010BD0122C1F81422B1F8102296
:1024B00093B2D1F80822812100F03FFB002010BD2B
:1024C000022010BD10B5D0F81422526890470020A9
:1024D00010BD134610B50A46002100F084FA002012
:1024E00010BD134610B50A46002100F026FB00205F
:1024F00010BD10B50446802100F0F6FA2046BDE874
:102500001040002100F0F0BA10B50323C0F80821F4
:10251000C0F8F431C0F80C2113460A46002100F03F
:1025200062FA002010BD10B505210023C0F8F41197
:102530001A46194600F057FA002010BD10B50223C4
:102540008261C0F8F431C26113460A46002100F0EE
:10255000F4FA002010BD10B504210023C0F8F411D6
:102560001A46194600F0E9FA002010BD10B50A46D7
:10257000024903A000F0E5F8004810BDCC09002096
:1025800043444320436F6E66696700001220088051
:10259000004870475C01002010B50A46024903A0BC
:1025A00000F0CFF8004810BDCC0900204344432080
:1025B000496E7465726661636500000004200880DE
:1025C000004870475801002010B50A46024903A090
:1025D00000F0B7F8004810BDCC09002053544D69F5
:1025E00063726F656C656374726F6E69637300000C
:1025F00010B50A46024903A000F0A3F8004810BD38
:10260000CC09002053544D333220566972747561E1
:102610006C20436F6D506F727400000010B50A4655
:10262000024903A000F08DF8004810BDCC0900203D
:102630003030303030303030303031410000000048
:102640000C2008800048704770010020F8B504464F
:1026500048880D46010A06294CD006DC01290DD018
:10266000022910D003294FD11BE007294AD00F2996
:102670004AD1D4F81012207CCA6937E0D4F810127D
:10268000207C0A6832E0207C02260028D4F814025C
:1026900005D0C16A684688470146467041E0816AB4
:1026A000F8E7C0B206282FD2DFE800F003080D12C9
:1026B000171CD4F81012207C4A6817E0D4F81012C6
:1026C000207C8A6812E0D4F81012207CCA680DE0E1
:1026D000D4F81012207C0A6908E0D4F81012207C8B
:1026E0004A6903E0D4F81012207C8A696946904751
:1026F000014616E0207C38B9D4F81402416B6846D4
:102700008847F5E7207C20B129462046FFF7F1FEF7
:10271000F8BDD4F81402016B6846884701460720CB
:102720004870BDF800000028F2D0EA88002AEFD0F7
:10273000824200D90246ADF800202046FFF7FEFE97
:10274000F8BD70B5002300281DD00446002502E026
:102750006D1CEDB2641C2678002EF9D1022404EB26
:1027600045041480CC545B1C0322CA5400245B1C17
:1027700006E0CA545B1CDAB28C54521CD3B2401C23
:102780000278002AF5D170BD10B580B1D0F81432AE
:1027900013B10023C0F8143209B1C0F8101201219E
:1027A00080F8FC11027000F0C9F8002010BD022072
:1027B00010BDD0F82002806A012801D002207047A5
:1027C0000020704710B50024D0F82002FDF7C9FFA3
:1027D00030B1012801D0022801D0022400E00124F8
:1027E000204610BD10B50024D0F82002FDF797FF59
:1027F00030B1012801D0022801D0022400E00124D8
:10280000204610BD2DE9F0411746044641B1D4F8E9
:10281000140242698AB394F8FC01032842D043E0D1
:10282000D4F8F411002504F11400022933D1D0E9C1
:1028300002639E4207D9F31A83609AB23946204652
:10284000FFF74FFE12E04068B0FBF3F103FB11010C
:10285000A1B9984212D3D4F8F81188420ED20022BE
:1028600011462046FFF73DFEC4F8F85100231A46F2
:102870001946204600F0B7F80DE012E0D4F8140233
:10288000C16829B194F8FC01032801D1204688478A
:102890002046FFF748FE94F80002012804D184F88E
:1028A000005201E0204690470020BDE8F08170B55D
:1028B0001546044641B1D4F8140282693AB394F83B
:1028C000FC01032824D025E0D4F8F41104F582702B
:1028D00003291FD1D0E902218A420BD9531A836000
:1028E0000846834200D303469AB229462046FFF7A2
:1028F000F0FD0FE0D4F81402016929B194F8FC014D
:10290000032801D1204688472046FFF724FE01E036
:1029100020469047002070BD0020704710B501216F
:1029200080F8FC11D0F814220179526890470020F9
:1029300010BDD0F82002FDF73CBF000010B50178B3
:1029400031BB14490122C1F8C803C0F820124FF06E
:10295000A0400860062048600020C1E90502C86167
:1029600008624862C1E90A020846FEF7B2FA08B1F5
:10297000FDF7ABFC80210748FDF790FE40220021C7
:102980000448FDF78FFE802201210248FDF78AFEF0
:10299000002010BD000600200A0601F07F01D0F8DB
:1029A0002002C1EBC10100EB810002D590F83E008E
:1029B000704790F8E2017047002070470020704790
:1029C00070B51D4613460024D0F820022A46FDF7B4
:1029D000FAFE30B1012801D0022801D0022400E023
:1029E0000124204670BD10B50024D0F82002FDF768
:1029F0000FFF30B1012801D0022801D0022400E0ED
:102A00000124204610BD70B5002204464023114623
:102A1000FFF7D6FF40252B46002280212046C4F830
:102A20001051FFF7CDFF0120256284F8FC01D4F896
:102A3000180228B1D4F81402217942682046904740
:102A4000002070BD90F8FD1180F8FC110020704747
:102A500010B590F8FC11032904D1D0F81412C969FB
:102A600001B18847002010BD01740020704710B5E7
:102A70000024D0F82002FEF709FB30B1012801D074
:102A8000022801D0022400E00124204610BD70B5C8
:102A9000044600F50270054600F05FF80120C4F816
:102AA000F401B4F80E02C4F8F80194F8080210F02A
:102AB0001F010AD001290DD0022910D000F0800199
:102AC000204600F011F8002070BD2946204600F095
:102AD000AAF8F8E72946204600F08CF9F3E72946E2
:102AE000204600F019F9EEE710B50024D0F82002D6
:102AF000FDF7B9FE30B1012801D0022801D002242F
:102B000000E00124204610BD10B50024D0F82002BA
:102B1000FEF7D7FA30B1012801D0022801D00224F3
:102B200000E00124204610BD90F8FC1180F8FD1152
:102B3000042180F8FC110020704710B50024D0F863
:102B40002002FDF7C0FE30B1012801D0022801D0DB
:102B5000022400E00124204610BD0A7802704A7861
:102B600042708A78CB7802EB032242800A794B7953
:102B700002EB032282808A79C97902EB0121C180AC
:102B800070470246002011B1C2F8141270470220AB
:102B9000704710B5D0F8142202241AB11268904779
:102BA00000B90024204610BD70B50E461A4D897834
:102BB00004462970012928D894F8FC01022802D083
:102BC000032822D105E099B10320616084F8FC015B
:102BD00009E091B1606888420AD0C1B22046FFF78F
:102BE00071FC297861602046FFF7D3FF02280CD0E2
:102BF0002046BDE87040FFF7AEBC022084F8FC011F
:102C000020466160FFF75EFCF2E731462046BDE8F2
:102C10007040FFF76EBC00001801002010B5FFF7F0
:102C200073FF002010BD2DE9F04100264B780125EF
:102C300032460A2B43D2DFE803F03C5842514208A7
:102C400005422A27FFF702FD63E004468888C8B9D9
:102C5000C888B8B9887800F07F0794F8FC01032889
:102C600010D084F8FE7139462046FFF700FF204659
:102C7000FFF771FC1FB1022084F8FC0149E084F8E1
:102C8000FC5146E020461AE0FFF78EFF41E0CB887A
:102C9000012B14D190F8FC31022B02D0032B0ED162
:102CA00004E08260012200F1080114E00122011D0C
:102CB00011E090F8FC21022A04D0032A02D0FFF789
:102CC00018FC26E0C560D0F8041209B10321C160E8
:102CD000022200F10C01FFF731FC1AE0044648889B
:102CE000012816D1C4F804520BE0044690F8FC0108
:102CF000022801D00328C5D14888012809D1C4F889
:102D00000422D4F814028268204690472046FFF738
:102D100022FC3046BDE8F08170B50D4604462878A7
:102D200000260979C0F34110012806D06878A0B3C5
:102D300001281FD003283FD107E0D4F81402294608
:102D4000826820469047002070BD94F8FC0102285C
:102D500017D003282CD1688828B921B1802902D046
:102D60002046FFF7C1FED4F81402294682682046A7
:102D7000904713E094F8FC01022802D0032817D1F1
:102D800003E0C9B180291BD116E06888A0B94806C4
:102D900004D02046FFF716FDE5E703E02046FFF7E5
:102DA000DAFB09E094F8FC01022807D003280BD0D5
:102DB00029462046FFF79DFB304670BD4806FBD0F4
:102DC0002046FFF791FEF7E7080601F07F0004EBCD
:102DD000001501D5143501E005F582752046FFF791
:102DE000DBFD00B101202860022229462046FFF7C2
:102DF000A5FBE1E770B5054690F8FC010C460328F9
:102E00000DD1207901280AD8D5F814028268284605
:102E10009047E08830B92846FFF79DFB02E028463E
:102E2000FFF767FB002070BD704700000048704747
:102E3000E003002030B54C781D4B01220D78AA40EC
:102E4000012CD0F81C4818D044EA0242C0F81C28D3
:102E50000A7800EB4210D0F8002B12040BD4D0F803
:102E6000002B0C89C4F30A042243C97843EA814148
:102E70000A43C0F8002B002030BD92B21443C0F8C2
:102E80001C480C7800EB4410D0F800291204F2D44E
:102E9000D0F800290D89C5F30A052A43C9788904A9
:102EA00041EA84510A431A43C0F80029E3E70000CD
:102EB00000800010D0F800196FF30A01C0F8001963
:102EC000D0F80818C1F34101022905D1D0F8001942
:102ED00041F00301C0F80019D0F8041841F48071E2
:102EE000C0F804180020704710B50446C06840F0D0
:102EF0004000E060204600F005F84FF48030A06309
:102F0000002010BD0146002200BF501C02460F4B9E
:102F1000984201D903207047086900F0004000285A
:102F2000F3D00022086940F00100086100BF501C86
:102F30000246064B984201D90320ECE7086900F0ED
:102F400001000028F3D100BFE5E70000400D0300B9
:102F500030B54D7801220C7802FA04F3012DD0F837
:102F60003C4816D024EA0343C0F83C38D0F81C385B
:102F70000C78A24023EA0242C0F81C28097800EB32
:102F80004110D0F8001B21F40041C0F8001B0020C4
:102F900030BD9BB29C43C0F83C48D0F81C380C783C
:102FA000A24092B29343C0F81C38097800EB41105C
:102FB000D0F8001921F40041C0F80019E7E710B576
:102FC000D0F8041821F00201C0F804180320FDF71E
:102FD0007DF9002010BD10B5D0F8041841F00201B1
:102FE000C0F804180320FDF771F9002010BD00009F
:102FF0002DE9F0470F4604460026DDF82CA0DDF849
:103000003C90DDF82080806B40F40010A063B9F1A3
:10301000000F0BD1A06B20F40010A063206840F0DB
:1030200040002060206840F0800020600025C4F847
:10303000005ED4F80008C4F80008D4F8000840F096
:103040000300C4F800081021204600F091FA204641
:1030500000F07EFAC4F81058C4F81458681EC4F87A
:103060001808C4F81C584FF09042FF2310E000BF2E
:1030700004EB4610D0F80019002902DAC0F8002944
:1030800001E0C0F80059C0F81059C0F80839761CA2
:10309000B742EDD800200FE004EB4011D1F8006BEF
:1030A000002E02DAC1F8002B01E0C1F8005BC1F884
:1030B000105BC1F8083B401C8742EDD8D4F81008DB
:1030C00020F48070C4F81008B8F1010F0AD1154837
:1030D000C4F83008D4F8300813490843C4F830085D
:1030E000D4F83008A5616FF080406061B8F1000F3E
:1030F00003D1A06940F01000A061A0690B4908430A
:10310000A061BAF1000F03D0A06940F00800A061EF
:10311000B9F1010F03D1A06905490843A06100205E
:10312000BDE8F087000180000300010000383C800A
:1031300004000040816821F0010181600020704797
:1031400010B54C78444B0A7800EB4212012C30D079
:10315000D2F8104B6FF31204C2F8104B0A7800EB50
:103160004212D2F8104B1C40C2F8104B4A690AB107
:103170008A684A610A7800EB4212D2F8103B43F4A5
:103180000023C2F8103B0A7800EB4212D2F8103B41
:103190008C68C4F312042343C2F8103B097800EB97
:1031A0004110D0F8001B41F00441C0F8001B002082
:1031B00010BD4C69002CD2F8104939D06FF31204BD
:1031C000C2F810490A7800EB4212D2F810491C40AC
:1031D000C2F810494B698A68934200D94A610A785B
:1031E00000EB4212D2F8103943F40023C2F8103930
:1031F0000A7800EB4212D2F810394C69C4F3120479
:1032000053EA0403C2F810394A693AB1D0F83428B5
:103210000C780123A3401A43C0F83428097800EB46
:103220004110D0F8001941F00441C0F80019BEE780
:103230001C40C2F810490A7800EB4212D2F810394B
:1032400043F40023C2F810390A7800EB4212D2F896
:1032500010396FF31203D5E7FFFF07E00021C0F834
:10326000101BD0F8101B41F40021C0F8101BD0F83F
:10327000101B41F01801C0F8101BD0F8101B41F0D2
:10328000C041C0F8101B002070474B780A7800EB53
:103290004212012B0BD0D2F8003B23F40013C2F8EA
:1032A000003BCA78032A17D0022A15D01DE0D2F8B5
:1032B000003923F40013C2F80039CA78032A01D078
:1032C000022A12D1097800EB4110D0F8001941F020
:1032D0008051C0F8001908E0097800EB4110D0F8DF
:1032E000001B41F08051C0F8001B002070474B7854
:1032F0000A7800EB4212012B14D0D2F8003B002BCD
:1033000005DBD2F8003B23F08043C2F8003B09788C
:1033100000EB4110D0F8001B41F40011C0F8001B75
:1033200000207047D2F80039002B05DBD2F80039B5
:1033300023F08043C2F80039097800EB4110D0F83F
:10334000001941F40011C0F80019E9E778B54E788A
:103350006FF060457A4C0B7800EB4313012E30D0B0
:10336000D3F8102B6FF31202C3F8102B0A7800EB7E
:103370004212D2F8103B2340C2F8103B4A69002A9F
:103380007ED08B681A44521EB2FBF3F292B20B78D5
:1033900000EB4313D3F8104B05EAC2452C43C3F8A6
:1033A000104B0B7800EB4313D3F8104B8D6855434B
:1033B000C5F312021443C3F8104BCA78012A75D022
:1033C000B2E04E6966B3D3F810696FF31206C3F822
:1033D00010690B7800EB4313D3F810692640C3F84B
:1033E00010694C698B681C44641EB4FBF3F305EA56
:1033F000C3440B7800EB4313D3F810592C43C3F8A4
:1034000010490B7800EB4313D3F810494D69C5F30D
:1034100012052C43C3F81049CB78012B16D02AE0B3
:10342000D3F810592540C3F810590B7800EB43131B
:10343000D3F8104944F40024C3F810490B7800EB8A
:103440004313D3F810496FF312040FE00B7800EB2D
:103450004313D3F8104924F0C044C3F810490B7843
:1034600000EB4313D3F8104944F00054C3F810495B
:10347000CB78012B0ED04B69EBB1D0F8343800E09B
:103480002DE00D780124AC402343C0F83438CB78CC
:10349000012B10D1D0F80838DB050B7800EB431373
:1034A000D3F8004903D444F0005402E02CE044F087
:1034B0008054C3F800490B7800EB4313D3F800495C
:1034C00044F00444C3F80049CB78012B35D1009275
:1034D0008A8A93B20A78C96800F0C0F82DE00A78A9
:1034E00000EB4212D2F8103B8C68C4F31204234361
:1034F000C2F8103B0A7800EB4212D2F8103B43F4BA
:103500000023C2F8103B58E7D0F80828D2050A7803
:1035100000EB4212D2F8003B02D443F0005301E02A
:1035200043F08053C2F8003B097800EB4110D0F81B
:10353000001B41F00441C0F8001B002078BD0000D2
:10354000FFFF07E0816841F00101816000207047C2
:10355000002110220261054A491C914201D9032031
:1035600070470369DB06F7D400207047400D030065
:103570000022202343EA811101610549521C8A423D
:1035800001D90320704703699B06F7D400207047D8
:10359000400D0300406900F001007047D0F8181892
:1035A000D0F81C08084080B27047D0F81818D0F83E
:1035B0001C080840000C7047D0F81038D0F83428A8
:1035C000CA4002F0010243EAC21200EB4110D0F8F7
:1035D00008091040704700EB4111D1F8081BD0F8E2
:1035E000140808407047416980690840704710B569
:1035F00003460020D21C920803F5805303E01C68A8
:1036000041F8044B401C9042F9D3084610BD10B558
:10361000C26822F0C042C260012901D021B107E096
:10362000C16841F0005102E0C16841F08041C160D1
:103630003220FCF74BFE002010BDD0F8002822F409
:10364000FE62C0F80028D0F800284FF4FE6303EAB9
:1036500001110A43C0F800280020704710B500246B
:10366000DB1C9B0800EB023000F5805004E000BF3B
:1036700051F8042B0260641C9C42F9D3002010BD59
:10368000FEE702E008C8121F08C1002AFAD17047FD
:103690007047002001E001C1121F002AFBD17047D2
:1036A000FCF710FFFEF770FDFEF73EFBFEF74AFB4E
:1036B0000D4900200854401C3E28FBDB0D2001F87A
:1036C0003E0F0A204870402207490848FEF7A2FE34
:1036D0000648FEF7DFFE002211460448FEF79AFE78
:1036E0000248FEF7D7FEEEE77C010020BC01002077
:1036F00000000000000000000102030406070809A2
:10370000A0860100400D0300801A060000350C0061
:1037100040420F0080841E0000093D0000127A0024
:103720000024F40000366E010048E801006CDC0261
:1037300050370008000000207C0100002C02000827
:10374000183800087C01002054120000923600084E
:1037500081130A06320233400114090243130201A5
:1037600025C03209041B01020B13052416100105A4
:10377000240110090104240202052406170107058B
:10378000820308151009040133020A1D070501020E
:10379000432C070581070938442A40072A8107116D
:1037A0002B0907440A2204440A16FF441349231430
:1037B00008B7221408252442081AF30C1A75041AB3
:1037C0008904C11A31281A25041A3D041A19045112
:1037D00013093D1B8D022C19041A85041AB10481AA
:1037E000138D251B08BD041AC9041AF104131D26E4
:1037F0001B086D081A99041A410C1F0403090412CE
:1038000001B512021E4083044057C9240203011C63
:08381000050F0CB41A1017217A
:04000005080001AD41
:00000001FF
